:02000000982D39
:10000600403083120313F0001F30F100F201F301B8
:020016000800E0
:10001800831203132230FC00F801F901FA01FB01F5
:10002800FC03031942280310FB0CFA0CF90CF80C1A
:10003800F30CF20CF10CF00C031C1428FC0303194C
:1000480034287408F80775080318750FF907760837
:100058000318760FFA0777080318770FFB07182895
:100068007408F80775080318750FF9077608031858
:0E007800760FFA0777080318770FFB070800CA
:1000860083120313FB01FA01F901F801A001730DB4
:10009600F80D7408F8027508031C750FF902760846
:1000A600031C760FFA027708031C770FFB02000188
:1000B600031C0130A002F30D0730FC00730DF80D90
:1000C600F90DFA0DFB0DA00D7408731C7C28F802BF
:1000D6007508031C750FF9027608031C760FFA02E1
:1000E6007708031C770FFB020001031C0130A002F6
:1000F6008D28F80775080318750FF9077608031891
:10010600760FFA0777080318770FFB070001031825
:100116000130A007F30DFC0B6128720DF80DF90DE7
:10012600FA0DFB0DA00D7408731CAB28F8027508B8
:10013600031C750FF9027608031C760FFA0277087E
:10014600031C770FFB020001031C0130A002BC2830
:10015600F80775080318750FF90776080318760F60
:10016600FA0777080318770FFB0700010318013019
:10017600A007F20D0730FC00720DF80DF90DFA0D0F
:10018600FB0DA00D7408721CDA28F8027508031C12
:10019600750FF9027608031C760FFA027708031C1E
:1001A600770FFB020001031C0130A002EB28F807C1
:1001B60075080318750FF90776080318760FFA07FE
:1001C60077080318770FFB07000103180130A00713
:1001D600F20DFC0BBF28710DF80DF90DFA0DFB0D94
:1001E600A00D7408721C0929F8027508031C750F06
:1001F600F9027608031C760FFA027708031C770FBC
:10020600FB020001031C0130A0021A29F807750839
:100216000318750FF90776080318760FFA0777089B
:100226000318770FFB07000103180130A007F10D33
:100236000730FC00710DF80DF90DFA0DFB0DA00D40
:100246007408711C3829F8027508031C750FF90229
:100256007608031C760FFA027708031C770FFB0259
:100266000001031C0130A0024929F807750803188C
:10027600750FF90776080318760FFA07770803183B
:10028600770FFB07000103180130A007F10DFC0BE7
:100296001D29700DF80DF90DFA0DFB0DA00D740852
:1002A600711C6729F8027508031C750FF902760898
:1002B600031C760FFA027708031C770FFB02000176
:1002C600031C0130A0027829F80775080318750F7A
:1002D600F90776080318760FFA0777080318770FD9
:1002E600FB07000103180130A007F00D0730FC00E2
:1002F600700DF80DF90DFA0DFB0DA00D7408701CAC
:100306009629F8027508031C750FF9027608031C76
:10031600760FFA027708031C770FFB020001031C15
:100326000130A002A729F80775080318750FF90709
:1003360076080318760FFA0777080318770FFB0776
:10034600000103180130A007F00DFC0B7B29701883
:10035600BA297408F80775080318750FF90776089F
:100366000318760FFA0777080318770FFB070800BC
:1003760083120313F801F9011030FC00710DF80D1A
:10038600F90D7408F8027508031C750FF9020318B5
:10039600D3297408F80775080318750FF9070310B1
:0A03A600F00DF10DFC0BC129080059
:1003B00083120313E503E5036508003C0318E529F0
:1003C000E503000000000000DC2900000000000040
:0603D0000000000008001F
:1003D600831203135908F1005A08F2000130D902BA
:1003E600031CDA038030F000803072067002031DB1
:1003F600FE297108003C03180B2A0330FC009730D5
:10040600FD00FD0B042AFC0B042A00000000EB296A
:020416000800DC
:100418000320E830F4000330F500F601F7010C2062
:100428007008E1007108E2007208E3007308E40054
:100438005908F4005A08F500F601F701432070083E
:10044800E1007108E2007208E3007308E400700834
:10045800F5007108F6007208F7007308F800F80C48
:10046800F70CF60CF50CF813F80CF70CF60CF50C69
:10047800F8137508F0007608F1007708F20078089C
:10048800F300F30CF20CF10CF00CF3137008DD0020
:100498007108DE0003205B08F4005C08F500F60133
:1004A800F7010C205D08F9005E08FA00FB01FC0169
:1004B8000330F8007908F4007A08F5007B08F600A4
:1004C8007C08F70078080319702AF40DF50DF60D6D
:1004D800F70D7410FF3E672A43207008E100710889
:1004E800E2007208E3007308E4000A30F400003008
:1004F800F5005D08F0005E08F100BB217008DD0022
:100508007108DE0000307102031D8C2A033070026E
:1005180003188F2ADC2A490884006408003C031D5C
:100528009F2A6308003C031D9F2A6208003C031DA4
:100538009F2A6108003C0318DA2A4A0880045E08EA
:100548000319B62ADF01E00100306002031DAE2A5C
:100558005E085F020318B62AE501D821DF0A0319ED
:10056800E00AA82A5D08E500D8214B0880055E0846
:100578000319CE2ADF01E00100306002031DC62AFC
:100588005E085F020318CE2AE501D821DF0A0319A5
:10059800E00AC02A5D08E500D8210130E102031C09
:1005A800E202031CE302031CE402912A4B088005C3
:0205B800080039
:1005BA00710DF80DF90D7408F8027508031C750F12
:1005CA00F902F00DF10D0F30FC00710DF80DF90D67
:1005DA007408701CF62AF8027508031C750FF902D4
:1005EA00FB2AF80775080318750FF907F00DF10DC6
:1005FA00FC0BEA2A7018072B7408F8077508031809
:08060A00750FF907000008005C
:1006120083120313D701D801D501D60180305606C3
:10062200F00080307002031D182B28305502031889
:10063200352B5508213E840000085206031D312B3C
:100642005508F0005608F100F00DF10D7010700819
:10065200A03E84000008D700840A0008D800352B89
:10066200D50A0319D60A0F2B8030F00080305806C5
:100672007002031D3E2B5708003C0318562B5708E7
:10068200D9005808DA005308DB005408DC000C22B9
:100692005308D9005408DA00EB2183120313D9015D
:1006A200DA01DB01DC010C225B2B5308D900540870
:0606B200DA00EB21080054
:1006B800831203137408003A031D6B2B7508003A64
:1006C800031D6B2BFF30F0007F30F100C42B831229
:1006D8000313FD01F901F8017108700403190034CE
:1006E80071087506FA00FA1BFD09FB01F51F812B3D
:1006F800F409F509F40A0319F50AF11F882BF00922
:10070800F109F00A0319F10A71087504FA00FA1BD5
:100718009D2BDD227B18B02BFD1F0034F009F10959
:10072800F00A0319F10AF809F909F80A0319F90A8C
:100738000034F51FAC2BF11BA82B7108F9007008C9
:10074800F800F101F001902BF101F001F00A0034FA
:10075800F109F009FB0A8D2BF80A0319F90A740844
:100768007802031D902B75087902031D902BF9015F
:10077800F801F00A0319F10AF11F902B0000FF3469
:02078800080067
:10078A0083120313FB01FA01F9018030F800F10C1E
:10079A00F00C031CD92B7408F90775080318750F98
:1007AA00FA070318FB0A0310F01FE12B7408FA0773
:1007BA0075080318750FFB07FB0CFA0CF90CF80CFB
:1007CA00031CCC2B7B08F3007A08F2007908F100AD
:0607DA007808F0000800A1
:0E07E000831203134D088A004C0882000800A3
:1007EE00283083120313D0000030D1008030510620
:1007FE00F00080307002031D062C3C3050020318AE
:10080E00742C5008F0005108F100F00DF10D70102D
:10081E00C430F00705300318013EF1077008CC0014
:10082E007108CD00F0238A110A12F000CC0A0319C8
:10083E00CD0AF0238A110A12F1009330F400003031
:10084E00F500C5237008CE007108CF005008A63EF3
:10085E00F00006300318013E5107F1007008CC007D
:10086E007108CD00F0238A110A12F1007108203AA6
:10087E000319572C5008A63EF00006300318013E0F
:10088E005107F1007008CC007108CD00F0238A11D9
:10089E000A12D2004E08D3004F08D40009235E2C52
:1008AE00831203134E08D9004F08DA00EB210A30E9
:1008BE0083120313F4000030F5004E08F0004F08C9
:1008CE00F1005C237008D9007108DA00EB21831265
:0C08DE000313D00A0319D10AFD2B0800F7
:1008EA00143083120313D0000030D1008030510637
:1008FA00F00080307002031D842C28305002031847
:10090A00F22C5008F0005108F100F00DF10D7010B2
:10091A00C430F00705300318013EF1077008CC0017
:10092A007108CD00F0238A110A12F000CC0A0319CB
:10093A00CD0AF0238A110A12F1009330F400003034
:10094A00F500C5237008CE007108CF005008A63EF6
:10095A00F00006300318013E5107F1007008CC0080
:10096A007108CD00F0238A110A12F1007108203AA9
:10097A000319D52C5008A63EF00006300318013E94
:10098A005107F1007008CC007108CD00F0238A11DC
:10099A000A12D2004E08D3004F08D4000923DC2CD7
:1009AA00831203134E08D9004F08DA00EB210A30EC
:1009BA0083120313F4000030F5004E08F0004F08CC
:1009CA00F1005C237008D9007108DA00EB21831268
:0C09DA000313D00A0319D10A7B2C08007B
:1009E60083120313D001D10180305106F00080300C
:1009F6007002031D002D1430500203186E2D50088E
:100A0600F0005108F100F00DF10D7010C430F00740
:100A160005300318013EF1077008CC007108CD00BF
:100A2600F0238A110A12F000CC0A0319CD0AF0232A
:100A36008A110A12F1009330F4000030F500C52344
:100A46007008CE007108CF005008A63EF0000630B0
:100A56000318013E5107F1007008CC007108CD0063
:100A6600F0238A110A12F1007108203A0319512D58
:100A76005008A63EF00006300318013E5107F1006B
:100A86007008CC007108CD00F0238A110A12D2003A
:100A96004E08D3004F08D4000923582D83120313A0
:100AA6004E08D9004F08DA00EB210A3083120313EF
:100AB600F4000030F5004E08F0004F08F1005C230A
:100AC6007008D9007108DA00EB2183120313D00AEB
:080AD6000319D10AF72C0800F6
:100ADE00831203134E08C9004F08F1000130F000D5
:100AEE00710803197E2DF00D7010FF3E782D7008E1
:100AFE00CA00F0097008CB0080304E0784007008E1
:0A0B0E0080058413700880050800BC
:100B1800F0238A110A128000840ACC0A0319CD0A2C
:080B2800F003031D8C2D0800F1
:100B30009A27831603178801890183128713881364
:100B4000FF30831603138600870107308312CE001F
:100B50000330CF006F25061CB12D7524061CB12D66
:100B6000AE2D861CB72DF723861CB72DB42D061D80
:0E0B7000BD2DF324061DBD2DBA2DAB2DBE2DBF
:100F340021308400283083120313F0007130CC0078
:100F44000730CD008C25A03084005030F0002130D3
:0A0F5400CC000730CD008C2508000A
:100B880004340034013400340134003401340034B6
:100B980001340034013400340134003401340034A9
:100BA8000134003402340034023400340134003497
:100BB8000134003401340034013400340234003488
:100BC8000134003402340034023400340134003477
:100BD8000234003402340034013400340134003467
:100BE8000134003401340034023400340134003458
:100BF8000234003402340034023400340134003446
:100C08000134003401340034023400340234003436
:100C18000234003401340034033400340134003425
:100C28000134003402340034023400340234003415
:100C38000234003403340034023400340234003403
:100C480001340034083400340834003402340034E9
:100C580001340034023400340234003402340034E5
:100C680002340034023400340234003402340034D4
:100C780004340034013400340134003401340034C5
:100C880001340034013400340234003401340034B7
:100C980002340034013400340234003403340034A4
:100CA8000134003401340034013400340134003498
:100CB8000134003401340034013400340134003488
:100CC8000134003402340034013400340234003476
:100CD8000334003401340034013400340234003465
:100CE8000234003401340034023400340134003456
:100CF8000234003402340034013400340234003445
:100D08000234003401340034023400340634003430
:100D18000134003401340034013400340134003427
:100D28000434003401340034013400340134003414
:100D38000134003401340034023400340134003406
:040D4800023400343D
:100D4C0063346734663467346534673464346734C9
:100D5C0020346734673465346634673461346734FF
:100D6C0066346534643420346534653463346434F7
:100D7C00653466346534643463343D343034203443
:100D8C0030343034633461346734673463346434FE
:100D9C006534663465346434633464346334633486
:100DAC003D3463346434653420342134423441346A
:100DBC004734463445344434433420346334633448
:100DCC006334633463342D3439342D3463342D342B
:100DDC0020342D342D342D342D342D342D342D340C
:100DEC003934383439342D343934203439343934B5
:100DFC003934393438343834383438343634363489
:100E0C0038343434363438342034393439342D349D
:100E1C0063346334633463346334633463342D3444
:100E2C0039342D3463342D342D342D3463346434FF
:060E3C006434723400343E
:100E420000340034163404348A34003492340034CA
:100E52009B340034A4340034AE340034B83400344B
:100E6200C3340034CF340034DC340034E934003489
:100E7200F634003405340134253401343734013476
:100E8200493401345D340134873401349F340134F0
:100E9200B8340134ED340134D23401340B34023429
:100EA2004B3402346E34023493340234BA34023492
:100EB2000F3403343F34033470340334A434033422
:100EC200DB340334D2340134E43402346E34023479
:100ED2009F340134163404346E340234E334003463
:100EE20020342134323433343434353436343734E4
:100EF2003834393430342D343D346334643472340C
:100F02006534663467345334613462347334433441
:100F1200443452344534463447344F3441346F34C8
:100F2200423469344E345234753431344C346B3477
:04400E00F22F000786
:00000001FF
