:020000040000FA
:100000000C945D000C9485000C9485000C94850084
:100010000C9485000C9485000C9485000C9485004C
:100020000C9485000C9485000C9485000C9485003C
:100030000C9485000C9485000C9485000C9485002C
:100040000C941A030C9485000C9485000C94850084
:100050000C9485000C9485000C9485000C9485000C
:100060000C9485000C94850000000008000201003B
:100070000003040700000000000000000000000072
:10008000250028002B0000000000240027002A0083
:10009000040404040404040402020202020203032E
:1000A0000303030301020408102040800102040836
:1000B0001020010204081020410711241FBECFEFB9
:1000C000D8E0DEBFCDBF12E0A0E0B1E0EEE7F6E1A0
:1000D00002C005900D92AA37B107D9F723E0AAE72D
:1000E000B2E001C01D92A834B207E1F710E0CDE5FF
:1000F000D0E004C02197FE010E944509CC35D1070C
:10010000C9F70E9483030C943D0B0C94000090E00F
:10011000FC01E859FF4F2491FC01EC55FF4F34914D
:10012000FC01E057FF4FE491EE23C9F0222339F0A0
:10013000233001F1A8F4213019F1223029F1F0E047
:10014000EE0FFF1FE458FF4FA591B4918FB7F894BD
:10015000EC91611126C030953E233C938FBF0895EA
:100160002730A9F02830C9F0243049F78091800069
:100170008F7D03C0809180008F7780938000DFCFD8
:1001800084B58F7784BDDBCF84B58F7DFBCF809125
:10019000B0008F778093B000D2CF8091B0008F7D78
:1001A000F9CF3E2BDACF3FB7F8948091E8029091D7
:1001B000E902A091EA02B091EB0226B5A89B05C026
:1001C0002F3F19F00196A11DB11D3FBFBA2FA92FD6
:1001D000982F8827BC01CD01620F711D811D911DD3
:1001E00042E0660F771F881F991F4A95D1F708953F
:1001F0008F929F92AF92BF92CF92DF92EF92FF9237
:100200004B015C010E94D3006B017C010E94D30072
:100210006C197D098E099F09683E7340810591051F
:10022000A8F321E0821A9108A108B10888EEC80E4F
:1002300083E0D81EE11CF11C81149104A104B104D7
:1002400029F7FF90EF90DF90CF90BF90AF909F90F5
:100250008F9008952FB7F8946091E4027091E502B1
:100260008091E6029091E7022FBF08950895EF92E2
:10027000FF920F931F93CF93DF93A0E8B2E0AB01FF
:1002800033E0440F551F3A95E1F7480F591FF0E04E
:10029000E0E047575D4FEF0123E0CC0FDD1F2A95CB
:1002A000E1F77E01E40EF51E30E020E08D01020F43
:1002B000131FE8011881112391F08901080F191FFC
:1002C0000830110500F568307105ECF477FD07C0C2
:1002D0008701020F131FE8011881111114C02F5F4D
:1002E0003F4F2330310511F731966F5F7F4F1396E3
:1002F000E330F10581F681E0DF91CF911F910F91FD
:10030000FF90EF90089580E0F7CFCF93DF93C091F7
:100310007E02D0917F02C80FD91F60917C0270913C
:100320007D02CE010E943701882321F0D0937F0205
:10033000C0937E02DF91CF910895CF92DF92EF922A
:10034000FF920F931F93CF93DF9300D0CDB7DEB70B
:1003500069834A83880F991F0091420310914303D8
:10036000000F111FECEEF2E09F012C5E32402017CF
:10037000310714F41192F8CF2981FC01E451FD4FAB
:1003800021838A81808360E0809140030E948700FE
:100390001016110604F501501109F801E451FD4F42
:1003A000E080D0903E03C0903C0388E0F82E6E2D94
:1003B000661F6627661F8C2D0E948700EE0C61E089
:1003C0008D2D0E94870060E08D2D0E948700FA9499
:1003D000F110EDCFDDCF61E0809140030F900F90E1
:1003E000DF91CF911F910F91FF90EF90DF90CF9011
:1003F0000C948700EF92FF921F93CF93DF9320918D
:1004000042033091430382179307B4F4EC0123E0D5
:10041000880F991F2A95E1F79C0124503D4F7901DF
:1004200011E0F70111927F0140E0612FCE010E949F
:100430009D011F5F1930A9F7DF91CF911F91FF90A8
:10044000EF90089520914203309143031216130652
:10045000FCF488309105E0F468307105C8F420E8B8
:1004600030E002C0359527956A95E2F7FC01E4512A
:10047000FD4F5089442349F0252B208B61E0680F04
:10048000408990E080E00C949D0120952523F5CFD4
:100490000895AF92BF92CF92DF92EF92FF920F93A7
:1004A0001F93CF93DF93CDB7DEB7CC52D1400FB6B9
:1004B000F894DEBF0FBECDBF2CE231E0EEE0F1E0FC
:1004C000DE01119601900D9221503040D9F7823013
:1004D00091050CF44CC0429A8A309105B0F57B012D
:1004E000EE0CFF1CEE0CFF1C2EE1289F8001299FC3
:1004F000100D112481E090E08C0F9D1F080F191F33
:10050000B12CA12CD12CC12CF601EE0FFF1FE00F56
:10051000F11F41E080819181892B09F440E0B7010E
:100520006C0D7D1DC5010E9422029FEFC91AD90AD8
:1005300083E0C816D10441F79FEFA91AB90A0A5FF0
:100540001F4F85E0A816B104E9F6C45DDE4F0FB673
:10055000F894DEBF0FBECDBFDF91CF911F910F91F9
:10056000FF90EF90DF90CF90BF90AF9008954298AA
:10057000B3CFEF92FF920F931F93CF93DF93EC01D2
:100580007B018A0188819981009729F02A813B812A
:100590002417350788F4B8016F5F7F4F0E94700AF7
:1005A000009791F0998388831B830A832C813D8176
:1005B000232B11F4FC0110821D830C83B701888169
:1005C00099810E94360B0CC088819981009711F0A7
:1005D0000E94E709198218821D821C821B821A82DE
:1005E000CE01DF91CF911F910F91FF90EF90089571
:1005F00083E090E090937F0280937E0210927D02D0
:1006000010927C020E94F60727E030E040E050E0C4
:100610000E94830829E0269FF001279FF00D1124F6
:10062000E65CFD4F89E0A0E8B2E001900D928A956A
:10063000E1F708951F920F920FB60F9211242F9396
:100640003F938F939F93AF93BF938091E4029091D8
:10065000E502A091E602B091E7023091E30223E0C7
:10066000230F2D3758F50196A11DB11D2093E302EC
:100670008093E4029093E502A093E602B093E70230
:100680008091E8029091E902A091EA02B091EB0218
:100690000196A11DB11D8093E8029093E902A093F9
:1006A000EA02B093EB02BF91AF919F918F913F917E
:1006B0002F910F900FBE0F901F90189526E8230FD3
:1006C0000296A11DB11DD2CF90E0FC01EC55FF4F69
:1006D000249180579F4FFC018491882399F090E0EA
:1006E000880F991FFC01EA57FF4FA591B491FC01B7
:1006F000E458FF4F859194918FB7F894EC91E22BD9
:10070000EC938FBF0895CF93DF93CDB7DEB7689793
:100710000FB6F894DEBF0FBECDBF789484B582606B
:1007200084BD84B5816084BD85B5826085BD85B595
:10073000816085BD80916E00816080936E00109213
:10074000810080918100826080938100809181008E
:10075000816080938100809180008160809380001F
:100760008091B10084608093B1008091B00081607D
:100770008093B00080917A00846080937A008091A9
:100780007A00826080937A0080917A008160809301
:100790007A0080917A00806880937A001092C1007C
:1007A00087B1876087B98AB183778AB98BB18C6842
:1007B0008BB980914203909143031816190634F4C3
:1007C00041E06CE090E080E00E949D018091420356
:1007D000909143031816190634F44FE06AE090E054
:1007E00080E00E949D0190E080E00E94FA010E945A
:1007F0002A016093C9027093CA028093CB0290933E
:10080000CC021092CD021092CE021092CF02109222
:10081000D0020E942A018E010F5F1F4F8091E202D9
:10082000811173C04A9936C00E942A01C090DE022D
:10083000D090DF02E090E002F090E1026C197D09B7
:100840008E099F096D3271408105910518F10E9452
:100850002A016093DE027093DF028093E00290939E
:10086000E10280910201909103010196843091058B
:100870000CF048C0909303018093020190E080E067
:100880000E94FA0170E060E0809102019091030102
:100890000E9449024B992EC00E942A01C090DA02A0
:1008A000D090DB02E090DC02F090DD026C197D0953
:1008B0008E099F096D32714081059105D8F00E9423
:1008C0002A016093DA027093DB028093DC0290933A
:1008D000DD0261E06093E202609102017091030128
:1008E00088EE93E00E941D0970930101609300015E
:1008F0000E94F802E0E0F0E0EF2B09F48FCF0E94B5
:1009000000008CCF81E090E0B5CF8091D9028823A0
:1009100009F4E4C0409A90E080E00E94FA018091DE
:100920007A0290917B021C8A1B8A1E8A1D8A188E6D
:100930001F8A4AE0B8010E944E08F8010190002089
:10094000E9F73197AF01401B510BB801CE01439637
:100950000E94B9028F89988D039708F456C01A82B5
:1009600019821C821B821E821D8250E040E069E7D2
:1009700072E0C8010E94B9028F89988D009729F111
:10098000EE24E394F12C029718F0A2E0EA2EF12C69
:10099000EB89FC89EE0DFF1DD08010826B897C896C
:1009A0006115710509F44EC0FB0101900020E9F7C3
:1009B0003197AF01461B570BC8010E94B9028B89C2
:1009C0009C89E80EF91EF701D0828B899C890097DB
:1009D00009F447C069817A816115710509F43FC046
:1009E0004D895E892D813E8142175307C0F10E94D7
:1009F000360B8D819E81988F8F8B1E821D828981FF
:100A00009A81009711F00E94E709F12CE12C8F895F
:100A1000988DE816F906C0F58B899C89009791F1AD
:100A20008E0D9F1DFC018081082E000C990BC09734
:100A30008A30910518F4B7010E944902FFEFEF1ABE
:100A4000FF0AE5CF89819A81009711F00E94E7099A
:100A50001A8219821E821D821C821B82B0CF0E94C4
:100A6000E70989819A819C8B8B8B8B819C819E8BE2
:100A70008D8B8D819E81988F8F8B1A8219821C821B
:100A80001B82BBCF80E0D0CF60ED77E080E090E0CC
:100A90000E94F8004098419A64E670E080E090E09F
:100AA0000E94F8004198E9E8F2E020E411922A95CA
:100AB000E9F70E94F80210927D0210927C021092D7
:100AC000D90210927B0210927A028B899C8900973E
:100AD00011F00E94E7091092E2020CCF4A9921C05E
:100AE0000E942A01C090D502D090D602E090D70291
:100AF000F090D8026C197D098E099F096D32714002
:100B00008105910570F08FEF9FEF0E9485010E9493
:100B10002A016093D5027093D6028093D7029093F6
:100B2000D8024B9921C00E942A01C090D102D090D6
:100B3000D202E090D302F090D4026C197D098E09A4
:100B40009F096D3271408105910570F081E090E060
:100B50000E9485010E942A016093D1027093D20203
:100B60008093D3029093D4024F994CC00E942A01E3
:100B7000C090CD02D090CE02E090CF02F090D00293
:100B80006C197D098E099F096D32714081059105AF
:100B9000C8F160908002C090810220908202509043
:100BA0008302309085024090860270908702D09038
:100BB0008802A0907C02B0907D02E0907E02F090CE
:100BC0007F02B501C7010E943701882309F4B5C02F
:100BD000409280025092810260928202709283025F
:100BE000C0928502D09286023092870220928802BB
:100BF0000E942A016093CD027093CE028093CF02AF
:100C00009093D0020E942A01C090C902D090CA02DB
:100C1000E090CB02F090CC02AB01BC014C195D0915
:100C20006E097F098091000190910101092E000C4D
:100C3000AA0BBB0B481759076A077B0708F1E0901E
:100C40007C02F0907D0257016FEFA61AB60AC090A1
:100C50007E02D0907F02B501C6010E943701882331
:100C600009F489C0B0927D02A0927C020E942A0100
:100C70006093C9027093CA028093CB029093CC0216
:100C800090E080E00E94FA0199E8A92E92E0B92E46
:100C9000D12CC12CF12CE12CF501EE0DFF1D808132
:100CA000882329F041E0B701C6010E9422024FEFDC
:100CB000E41AF40A68E0E616F10471F78FEFC81A37
:100CC000D80A98E0A90EB11CE8E0CE16D10411F7BD
:100CD00080E8A82E82E0B82ED12CC12CF12CE12C7A
:100CE000F501EE0DFF1D8081882379F060917E0271
:100CF00070917F026E0D7F1D80917C0290917D022C
:100D000041E08C0D9D1D0E942202FFEFEF1AFF0AA9
:100D100023E0E216F10421F74FEFC41AD40A63E08E
:100D2000A60EB11C83E0C816D104C1F664E670E0DB
:100D300080E090E00E94F800DDCD470121E0821ABA
:100D40009108B501C4010E943701882329F09092CF
:100D50007F0280927E023CCF4FEFE41AF40AB50185
:100D6000C7010E943701882309F442CFF0927F0225
:100D7000E0927E022DCF20E832E0C701F3E0880F39
:100D8000991FFA95E1F78C0D9D1D87579D4F50E0F7
:100D900040E0F901E40FF51F6081662329F0FC01B2
:100DA000E40FF51F61E060834F5F5F4F43305105F3
:100DB00081F72D5F3F4F0896E2E029383E0739F76B
:100DC00040917A0250917B0287E090E0BC01E3E021
:100DD000660F771FEA95E1F730E020E0F901E60FB2
:100DE000F71FE757FD4FE081EE2391F12F5F3F4F53
:100DF0002830310599F79C0112161306B4F4F90155
:100E000063E0EE0FFF1F6A95E1F7E757FD4F70E0D3
:100E100060E0DF011897AC91A1936F5F7F4F68305E
:100E20007105B9F721503109E7CF1092890210926C
:100E30008A0210928B0210928C0210928D021092F4
:100E40008E0210928F02109290024F5F5F4F0196B8
:100E5000019708F0BBCF50937B0240937A020E9427
:100E6000F80260917C0270917D0280917E029091E7
:100E70007F020E9437018111F9CE21E02093D9022F
:100E8000F5CECF93DF93CCE0D0E0D0933D03C09379
:100E90003C038BE090E090933F0380933E038AE015
:100EA00090E0909341038093400381E090E0909321
:100EB0004303809342038CE00E94640380913E03CD
:100EC0000E946403809140030E94640361E080916A
:100ED00040030E948700D0933D03C0933C03ECEF96
:100EE000F2E08CE393E011928E179F07E1F7D0E0D8
:100EF000C0E08091420390914303C817D9073CF5A5
:100F000040E06FE0CE010E949D01809142039091EC
:100F10004303C817D9072CF447E06BE0CE010E94C9
:100F20009D0140E069E0CE010E949D01CE010E943A
:100F3000FA018091420390914303C817D9072CF41A
:100F400040E06CE0CE010E949D012196D2CFDF915E
:100F5000CF9108958F929F92AF92BF92CF92DF92DE
:100F6000EF92FF92CF93DF93EC01688179818A81C0
:100F70009B81611571058105910521F464E279ED8C
:100F80008BE597E02DE133EF41E050E00E948308CC
:100F900049015A019B01AC01A7EAB1E40E94A208F1
:100FA0006B017C01ACEEB4EFA50194010E94B00886
:100FB000C60ED71EE81EF91EF7FE06C081E0C81A4D
:100FC000D108E10880E8F80AC882D982EA82FB8267
:100FD000C701B6019F77DF91CF91FF90EF90DF902F
:100FE000CF90BF90AF909F908F9008958F929F92D7
:100FF000AF92BF92CF92DF92EF92FF926091040185
:1010000070910501809106019091070161157105AC
:101010008105910521F464E279ED8BE597E02DE1FE
:1010200033EF41E050E00E94830849015A019B01DF
:10103000AC01A7EAB1E40E94A2086B017C01ACEE0E
:10104000B4EFA50194010E94B008C60ED71EE81E99
:10105000F91EF7FE06C081E0C81AD108E10880E851
:10106000F80AC0920401D0920501E0920601F092C4
:101070000701C701B6019F77FF90EF90DF90CF90F7
:10108000BF90AF909F908F900895609304017093EC
:10109000050180930601909307010895BB274A300C
:1010A00031F4992322F4BDE2909581959F4F0C94E1
:1010B0005A08BB27FB015527AA27880F991FAA1F8B
:1010C000A41710F0A41B83955051B9F7A05DAA3363
:1010D00008F0A95DA193009779F7B111B19311922E
:1010E000CB010C947308DC01FC01672F719177230D
:1010F000E1F7329704C07C916D9370836291AE17D3
:10110000BF07C8F30895052E97FB1EF400940E94B4
:101110009A0857FD07D00E94EC0807FC03D04EF454
:101120000C949A0850954095309521953F4F4F4F1C
:101130005F4F089590958095709561957F4F8F4F83
:101140009F4F08950E940E09A59F900DB49F900D8A
:10115000A49F800D911D11240895B7FF0C94A2083F
:101160000E94A208821B930B08952F923F924F92E8
:101170005F926F927F928F929F92AF92BF92CF9227
:10118000DF92EF92FF920F931F93CF93DF93CDB730
:10119000DEB7CA1BDB0B0FB6F894DEBF0FBECDBFA8
:1011A00009942A88398848885F846E847D848C8479
:1011B0009B84AA84B984C884DF80EE80FD800C8182
:1011C0001B81AA81B981CE0FD11D0FB6F894DEBF65
:1011D0000FBECDBFED010895A1E21A2EAA1BBB1BC5
:1011E000FD010DC0AA1FBB1FEE1FFF1FA217B307F3
:1011F000E407F50720F0A21BB30BE40BF50B661F09
:10120000771F881F991F1A9469F7609570958095CC
:1012100090959B01AC01BD01CF010895A29FB00143
:10122000B39FC001A39F700D811D1124911DB29F1A
:10123000700D811D1124911D089597FB072E16F442
:10124000009407D077FD09D00E94310907FC05D032
:101250003EF4909581959F4F0895709561957F4FCD
:101260000895AA1BBB1B51E107C0AA1FBB1FA617ED
:10127000B70710F0A61BB70B881F991F5A95A9F73F
:1012800080959095BC01CD010895EE0FFF1F05904C
:10129000F491E02D09940F931F93CF93DF93823045
:1012A000910510F482E090E0E0914603F09147034D
:1012B00030E020E0B0E0A0E0309799F4211531054E
:1012C00009F44AC0281B390B24303105D8F58A812E
:1012D0009B816115710589F1FB0193838283FE0176
:1012E00011C0408151810281138148175907E0F0F4
:1012F0004817590799F4109761F012960C931297BA
:1013000013961C933296CF01DF91CF911F910F91CD
:1013100008950093460310934703F4CF2115310538
:1013200051F04217530738F0A901DB019A01BD01C2
:10133000DF01F801C1CFEF01F9CF9093470380930C
:101340004603CDCFFE01E20FF31F8193919322500C
:10135000310939832883D7CF209144033091450345
:10136000232B41F420910A0130910B013093450366
:101370002093440320910801309109012115310582
:1013800041F42DB73EB740910C0150910D01241B43
:10139000350BE0914403F0914503E217F307A0F405
:1013A0002E1B3F0B2817390778F0AC014E5F5F4FBB
:1013B0002417350748F04E0F5F1F509345034093A5
:1013C0004403819391939FCFF0E0E0E09CCFCF93D3
:1013D000DF930097E9F0FC01329713821282A0910B
:1013E0004603B0914703ED0130E020E01097A1F4EF
:1013F00020813181820F931F209144033091450356
:101400002817390709F061C0F0934503E0934403BE
:10141000DF91CF910895EA01CE17DF07E8F54A8101
:101420005B819E0141155105B1F7E901FB83EA8318
:1014300049915991C40FD51FEC17FD0761F48081C4
:1014400091810296840F951FE90199838883828197
:1014500093819B838A83F0E0E0E012968D919C91CA
:1014600013970097B9F52D913C911197CD010296F4
:10147000820F931F209144033091450328173907A9
:1014800039F6309751F51092470310924603B09306
:101490004503A0934403BCCFD383C28340815181D1
:1014A000840F951FC817D90761F44E5F5F4F88817D
:1014B0009981480F591F518340838A819B8193836F
:1014C00082832115310509F0B0CFF0934703E093F3
:1014D00046039ECFFD01DC01C0CF13821282D7CF1D
:1014E000B0E0A0E0E6E7FAE00C94B7088C010097C2
:1014F00051F4CB010E944B098C01C801CDB7DEB776
:10150000E0E10C94D308FC01E60FF71F9C01225088
:101510003109E217F30708F49DC0D901CD91DC91A0
:101520001197C617D70798F0C530D10530F3CE0113
:1015300004978617970708F3C61BD70B2297C1930A
:10154000D1936D937C93CF010E94E709D6CF5B01C5
:10155000AC1ABD0A4C018C0E9D1EA0914603B091A1
:101560004703512C412CF12CE12C109731F580913F
:101570004403909145038815990509F05CC046160F
:10158000570608F058C08091080190910901009712
:1015900041F48DB79EB740910C0150910D01841B11
:1015A000950BE817F90708F055C0F0934503E09351
:1015B0004403F90171836083A0CF8D919C911197B1
:1015C00012966C90129713967C901397A815B905F4
:1015D00059F56C0142E0C40ED11CCA14DB0420F1A1
:1015E000AC014A195B09DA011296159780F0628204
:1015F000738251834083D9016D937C93E114F1048C
:1016000071F0D7011396FC93EE93129776CF229642
:101610008C0F9D1FF90191838083F301EFCFF0932D
:101620004703E093460369CF4816590608F42C0196
:101630007D01D3019ACFCB010E944B097C01009719
:1016400049F0AE01B8010E942D0BC8010E94E709C4
:10165000870153CF10E000E050CFFB01DC0102C056
:1016600001900D9241505040D8F70895FB01DC01E4
:1016700001900D920020E1F70895F894FFCFE80360
:10168000010001000000000048038000010001008B
:101690000100010000000100010000000100010044
:1016A0000000010001000100010000000100000035
:1016B0000100010000000000010000000000010026
:1016C0000000010001000100010001000100000014
:1016D0000000010001000100010001000000000005
:1016E00001000100010001000100010000000000F4
:1016F00001000100010001000000000001000100E4
:1017000001000100010000000100010000000100D3
:1017100001000100010000000000010000000000C5
:1017200001000100010001000100000000000100B3
:1017300001000100000000000100010001000100A3
:101740000100010001000100000000000100010093
:101750000100010000000100010001000100010082
:101760000100010000000000010000000000010075
:101770000000000001000000000001000100010065
:101780000100010000000100010001000100010052
:101790000000010001000100010001000100010042
:1017A0000100000001000100010001000000000034
:1017B0000100010001000100010101000000000022
:1017C0000001010100010000000001010000010111
:1017D0000000000100000101010000000101000102
:1017E00001000000000001010101000000000000F4
:0817F0000101010100000000ED
:107E0000112484B714BE81FFF0D085E080938100F7
:107E100082E08093C00088E18093C10086E0809377
:107E2000C20080E18093C4008EE0C9D0259A86E02C
:107E300020E33CEF91E0309385002093840096BBD3
:107E4000B09BFECF1D9AA8958150A9F7CC24DD24C4
:107E500088248394B5E0AB2EA1E19A2EF3E0BF2EE7
:107E6000A2D0813461F49FD0082FAFD0023811F036
:107E7000013811F484E001C083E08DD089C08234E0
:107E800011F484E103C0853419F485E0A6D080C0E4
:107E9000853579F488D0E82EFF2485D0082F10E0AE
:107EA000102F00270E291F29000F111F8ED06801E7
:107EB0006FC0863521F484E090D080E0DECF843638
:107EC00009F040C070D06FD0082F6DD080E0C81688
:107ED00080E7D80618F4F601B7BEE895C0E0D1E017
:107EE00062D089930C17E1F7F0E0CF16F0E7DF06D8
:107EF00018F0F601B7BEE89568D007B600FCFDCFD4
:107F0000A601A0E0B1E02C9130E011968C91119780
:107F100090E0982F8827822B932B1296FA010C0160
:107F200087BEE89511244E5F5F4FF1E0A038BF0790
:107F300051F7F601A7BEE89507B600FCFDCF97BE46
:107F4000E89526C08437B1F42ED02DD0F82E2BD052
:107F50003CD0F601EF2C8F010F5F1F4F84911BD097
:107F6000EA94F801C1F70894C11CD11CFA94CF0C13
:107F7000D11C0EC0853739F428D08EE10CD085E9AC
:107F80000AD08FE07ACF813511F488E018D01DD067
:107F900080E101D065CF982F8091C00085FFFCCF94
:107FA0009093C60008958091C00087FFFCCF809118
:107FB000C00084FD01C0A8958091C6000895E0E648
:107FC000F0E098E1908380830895EDDF803219F02E
:107FD00088E0F5DFFFCF84E1DECF1F93182FE3DFCA
:107FE0001150E9F7F2DF1F91089580E0E8DFEE27F6
:047FF000FF270994CA
:027FFE00040479
:00000001FF
