:100000000C9462000C948A000C948A000C948A0070
:100010000C948A000C948A000C948A000C948A0038
:100020000C948A000C948A000C948A000C948A0028
:100030000C948A000C948A000C948A000C948A0018
:100040000C947D030C948A000C948A000C948A0012
:100050000C948A000C948A000C948A000C948A00F8
:100060000C948A000C948A000000000024002700F1
:100070002A0000000000250028002B0000000000DE
:1000800023002600290004040404040404040202DA
:100090000202020203030303030301020408102007
:1000A0004080010204081020010204081020000012
:1000B0000008000201000003040700000000000027
:1000C00000000E0711241FBECFEFD8E0DEBFCDBF6A
:1000D00012E0A0E0B1E0EEECF5E102C005900D9277
:1000E000A637B107D9F723E0A6E7B2E001C01D9219
:1000F000AB33B207E1F710E0C2E6D0E004C02197CD
:10010000FE010E94ED08C136D107C9F70E94C7035E
:100110000C94E50A0C940000833081F028F48130BF
:1001200099F08230A9F008958730A9F08830C9F09D
:100130008430B1F4809180008F7D03C08091800075
:100140008F7780938000089584B58F7784BD08955C
:1001500084B58F7DFBCF8091B0008F778093B00006
:1001600008958091B0008F7DF9CFCF93DF93282F32
:1001700030E0F901E255FF4F8491F901E656FF4F57
:10018000D491F901EA57FF4FC491CC23A1F081111A
:100190000E948C00EC2FF0E0EE0FFF1FE458FF4FA1
:1001A000A591B491EC91ED2381E090E009F480E019
:1001B000DF91CF91089580E090E0FACF1F93CF9325
:1001C000DF93282F30E0F901E255FF4F8491F901C8
:1001D000E656FF4FD491F901EA57FF4FC491CC2363
:1001E000A9F0162F81110E948C00EC2FF0E0EE0F89
:1001F000FF1FEE58FF4FA591B4918FB7F894EC9183
:10020000111108C0D095DE23DC938FBFDF91CF9111
:100210001F910895DE2BF8CFCF93DF9390E0FC0180
:10022000E656FF4F24918A579F4FFC018491882303
:10023000D1F090E0880F991FFC01E859FF4FA5917C
:10024000B491FC01EE58FF4FC591D491623071F426
:100250009FB7F8943C91822F809583238C93E881FB
:100260002E2B28839FBFDF91CF9108958FB7F894ED
:10027000EC912E2B2C938FBFF6CF3FB7F894809143
:10028000DB029091DC02A091DD02B091DE0226B586
:10029000A89B05C02F3F19F00196A11DB11D3FBFBE
:1002A000BA2FA92F982F8827BC01CD01620F711D8D
:1002B000811D911D42E0660F771F881F991F4A9587
:1002C000D1F708958F929F92AF92BF92CF92DF9213
:1002D000EF92FF924B015C010E943D016B017C019A
:1002E0000E943D016C197D098E099F09683E73408B
:1002F00081059105A8F321E0821A9108A108B108AF
:1003000088EEC80E83E0D81EE11CF11C8114910414
:10031000A104B10429F7FF90EF90DF90CF90BF9038
:10032000AF909F908F9008952FB7F8946091D70267
:100330007091D8028091D9029091DA022FBF08956E
:100340000895EF92FF920F931F93CF93DF93ACEB3F
:10035000B2E0AB0133E0440F551F3A95E1F7480F87
:10036000591FF0E0E0E048585D4FEF0123E0CC0F6B
:10037000DD1F2A95E1F77E01E40EF51E30E020E056
:100380008D01020F131FE8011881112391F08901DB
:10039000080F191F0830110500F568307105ECF4DD
:1003A00077FD07C08701020F131FE80118811111A3
:1003B00014C02F5F3F4F2330310511F731966F5F27
:1003C0007F4F1396E330F10581F681E0DF91CF9105
:1003D0001F910F91FF90EF90089580E0F7CFCF939A
:1003E000DF93C091B802D091B902C80FD91F6091B4
:1003F000BA027091BB02CE010E94A101882321F0B4
:10040000D093B902C093B802DF91CF910895CF92F3
:10041000DF92EF92FF920F931F93CF93DF9300D061
:10042000CDB7DEB769834A83880F991F00913503E2
:1004300010913603000F111FEFEDF2E09F012F5DC9
:1004400032402017310714F41192F8CF2981FC01B2
:10045000E152FD4F21838A81808360E080913303E4
:100460000E94DE001016110604F501501109F80172
:10047000E152FD4FE080D0903103C0902F0388E01F
:10048000F82E6E2D661F6627661F8C2D0E94DE00DB
:10049000EE0C61E08D2D0E94DE0060E08D2D0E944B
:1004A000DE00FA94F110EDCFDDCF61E080913303EF
:1004B0000F900F90DF91CF911F910F91FF90EF90D0
:1004C000DF90CF900C94DE00EF92FF921F93CF93BA
:1004D000DF93209135033091360382179307B4F4EC
:1004E000EC0123E0880F991F2A95E1F79C01215127
:1004F0003D4F790111E0F70111927F0140E0612F3A
:10050000CE010E9407021F5F1930A9F7DF91CF913A
:100510001F91FF90EF90089520913503309136039D
:1005200012161306FCF488309105E0F4683071056A
:10053000C8F420E830E002C0359527956A95E2F7C7
:10054000FC01E152FD4F5089442349F0252B208BBB
:1005500061E0680F408990E080E00C9407022095EC
:100560002523F5CF0895AF92BF92CF92DF92EF92FD
:10057000FF920F931F93CF93DF93CDB7DEB7CC528B
:10058000D1400FB6F894DEBF0FBECDBF2CE231E0F4
:10059000EAE0F1E0DE01119601900D922150304029
:1005A000D9F78A309105B0F57B01EE0CFF1CEE0CFB
:1005B000FF1C2EE1289F8001299F100D112481E04E
:1005C00090E08C0F9D1F080F191FB12CA12CD12C6E
:1005D000C12CF601EE0FFF1FE00FF11F41E08081FB
:1005E0009181892B09F440E0B7016C0D7D1DC50197
:1005F0000E948C029FEFC91AD90A83E0C816D10461
:1006000041F79FEFA91AB90A0A5F1F4F85E0A816A4
:10061000B104E9F6C45DDE4F0FB6F894DEBF0FBE3D
:10062000CDBFDF91CF911F910F91FF90EF90DF90A1
:10063000CF90BF90AF900895EF92FF920F931F93CA
:10064000CF93DF93EC017B018A0188819981009728
:1006500029F02A813B812417350788F4B8016F5FA0
:100660007F4F0E94180A009791F0998388831B831B
:100670000A832C813D81232B11F4FC0110821D8300
:100680000C83B701888199810E94DE0A0CC08881A1
:100690009981009711F00E948F09198218821D829A
:1006A0001C821B821A82CE01DF91CF911F910F9184
:1006B000FF90EF90089583E090E09093B9028093CB
:1006C000B8021092BB021092BA020E94C60727E03D
:1006D00030E040E050E00E94530829E0269FF001FE
:1006E000279FF00D1124EA5CFD4F89E0ACEBB2E0EE
:1006F00001900D928A95E1F708951F920F920FB61F
:100700000F9211242F933F938F939F93AF93BF9397
:100710008091D7029091D802A091D902B091DA02CB
:100720003091D60223E0230F2D3758F50196A11DF5
:10073000B11D2093D6028093D7029093D802A09344
:10074000D902B093DA028091DB029091DC02A09191
:10075000DD02B091DE020196A11DB11D8093DB0286
:100760009093DC02A093DD02B093DE02BF91AF91C3
:100770009F918F913F912F910F900FBE0F901F90DF
:10078000189526E8230F0296A11DB11DD2CFCF9355
:10079000DF93CDB7DEB768970FB6F894DEBF0FBE14
:1007A000CDBF789484B5826084BD84B5816084BDFA
:1007B00085B5826085BD85B5816085BD80916E00FF
:1007C000816080936E001092810080918100826030
:1007D000809381008091810081608093810080916D
:1007E00080008160809380008091B100846080935C
:1007F000B1008091B00081608093B00080917A0058
:10080000846080937A0080917A00826080937A007D
:1008100080917A00816080937A0080917A0080686C
:1008200080937A001092C100809135039091360335
:100830001816190634F441E06CE090E080E00E9464
:10084000070280913503909136031816190634F487
:1008500048E06AE090E080E00E94070290E080E0DB
:100860000E94640262E082E00E940C0162E083E088
:100870000E940C0162E087E00E940C010E945B0371
:100880000E9494016093C5027093C6028093C702D0
:100890009093C8021092C9021092CA021092CB0221
:1008A0001092CC020E9494018E010F5F1F4F809125
:1008B000D502882309F4DFC090E080E00E94640242
:1008C00080917602909177021C8A1B8A1E8A1D8A6B
:1008D000188E1F8A4AE0B8010E941E08F801019094
:1008E0000020E9F73197AF01401B510BB801CE0151
:1008F00043960E941C038F89988D039708F456C075
:100900001A8219821C821B821E821D8250E040E0E6
:1009100065E772E0C8010E941C038F89988D0097DB
:1009200029F1EE24E394F12C029718F0A2E0EA2ECC
:10093000F12CEB89FC89EE0DFF1DD08010826B89B4
:100940007C896115710509F44EC0FB0101900020FE
:10095000E9F73197AF01461B570BC8010E941C03F2
:100960008B899C89E80EF91EF701D0828B899C89BE
:10097000009709F447C069817A816115710509F40E
:100980003FC04D895E892D813E8142175307C0F1DA
:100990000E94DE0A8D819E81988F8F8B1E821D8220
:1009A00089819A81009711F00E948F09F12CE12C26
:1009B0008F89988DE816F906C0F58B899C89009778
:1009C00091F18E0D9F1DFC018081082E000C990B6A
:1009D000C0978A30910518F4B7010E94B302FFEF67
:1009E000EF1AFF0AE5CF89819A81009711F00E94E2
:1009F0008F091A8219821E821D821C821B82B0CF2F
:100A00000E948F0989819A819C8B8B8B8B819C8121
:100A10009E8B8D8B8D819E81988F8F8B1A821982F0
:100A20001C821B82BBCF80E0D0CF60ED77E080E0FE
:100A300090E00E946201E8E7F2E020E411922A953A
:100A4000E9F70E945B031092BB021092BA02109267
:100A5000D50210927702109276028B899C890097BA
:100A600011F00E948F09E0E0F0E0EF2B09F41FCFB6
:100A70000E9400001CCF82E00E94B500892B09F57E
:100A80000E949401C090D102D090D202E090D30293
:100A9000F090D4026C197D098E099F096D32714066
:100AA0008105910570F08FEF9FEF0E94EF010E948A
:100AB00094016093D1027093D2028093D3029093F9
:100AC000D40283E00E94B500892B09F50E949401AD
:100AD000C090CD02D090CE02E090CF02F090D00234
:100AE0006C197D098E099F096D3271408105910550
:100AF00070F081E090E00E94EF010E949401609309
:100B0000CD027093CE028093CF029093D00287E003
:100B10000E94B500892B09F04CC00E949401C0903E
:100B2000C902D090CA02E090CB02F090CC026C19BE
:100B30007D098E099F096D32714081059105C8F1CB
:100B40006090BC02C090BD022090BE025090BF02D7
:100B50003090C1024090C2027090C302D090C40293
:100B6000A090BA02B090BB02E090B802F090B90237
:100B7000B501C7010E94A101882309F4ABC04092CE
:100B8000BC025092BD026092BE027092BF02C0923F
:100B9000C102D092C2023092C3022092C4020E94CB
:100BA00094016093C9027093CA028093CB02909320
:100BB000CC020E949401C090C502D090C602E09081
:100BC000C702F090C8026C197D098E099F09683E22
:100BD00073408105910508F1E090BA02F090BB02E4
:100BE0005701FFEFAF1ABF0AC090B802D090B90208
:100BF000B501C6010E94A101882309F489C0B09201
:100C0000BB02A092BA020E9494016093C502709345
:100C1000C6028093C7029093C80290E080E00E94D1
:100C2000640298E7A92E92E0B92ED12CC12CF12CA8
:100C3000E12CF501EE0DFF1D8081882329F041E0B4
:100C4000B701C6010E948C024FEFE41AF40A68E073
:100C5000E616F10471F78FEFC81AD80A98E0A90ECA
:100C6000B11CE8E0CE16D10411F78CEBA82E82E07F
:100C7000B82ED12CC12CF12CE12CF501EE0DFF1D6D
:100C80008081882379F06091B8027091B9026E0D6D
:100C90007F1D8091BA029091BB0241E08C0D9D1D99
:100CA0000E948C02FFEFEF1AFF0A23E0E216F10424
:100CB00021F74FEFC41AD40A63E0A60EB11C83E0FB
:100CC000C816D104C1F664E670E080E090E00E94AE
:100CD0006201C9CE470121E0821A9108B501C40121
:100CE0000E94A101882329F09092B9028092B80253
:100CF00046CF4FEFE41AF40AB501C7010E94A101E3
:100D0000882309F44CCFF092B902E092B80237CFB1
:100D10002CEB32E0C701F3E0880F991FFA95E1F759
:100D20008C0D9D1D88589D4F50E040E0F901E40F67
:100D3000F51F6081662329F0FC01E40FF51F61E0D7
:100D400060834F5F5F4F4330510581F72D5F3F4F09
:100D50000896E2E0253C3E0739F740917602509133
:100D6000770287E090E0BC01E3E0660F771FEA9529
:100D7000E1F730E020E0F901E60FF71FE858FD4FFA
:100D8000E081EE2391F12F5F3F4F2830310599F735
:100D90009C0112161306B4F4F90163E0EE0FFF1F75
:100DA0006A95E1F7E858FD4F70E060E0DF011897C1
:100DB000AC91A1936F5F7F4F68307105B9F72150F7
:100DC0003109E7CF109278021092790210927A02DC
:100DD00010927B0210927C0210927D0210927E0291
:100DE00010927F024F5F5F4F0196019708F0BBCFD3
:100DF00050937702409376020E945B036091BA029F
:100E00007091BB028091B8029091B9020E94A10139
:100E10008111F9CE21E02093D502F5CECF93DF9357
:100E2000CCE0D0E0D0933003C0932F038BE090E070
:100E300090933203809331038AE090E090933403DF
:100E40008093330381E090E09093360380933503E1
:100E500061E08CE00E940C0161E0809131030E940E
:100E60000C0161E0809133030E940C0161E08091EC
:100E700033030E94DE00D0933003C0932F03EFEEC4
:100E8000F2E08FE293E011928E179F07E1F7D0E036
:100E9000C0E08091350390913603C817D9073CF51F
:100EA00040E06FE0CE010E940702809135039091EF
:100EB0003603C817D9072CF447E06BE0CE010E9437
:100EC000070240E069E0CE010E940702CE010E94C5
:100ED00064028091350390913603C817D9072CF42A
:100EE00040E06CE0CE010E9407022196D2CFDF9154
:100EF000CF9108958F929F92AF92BF92CF92DF923F
:100F0000EF92FF92CF93DF93EC01688179818A8120
:100F10009B81611571058105910521F464E279EDEC
:100F20008BE597E02DE133EF41E050E00E9453085C
:100F300049015A019B01AC01A7EAB1E40E94720881
:100F40006B017C01ACEEB4EFA50194010E94800816
:100F5000C60ED71EE81EF91EF7FE06C081E0C81AAD
:100F6000D108E10880E8F80AC882D982EA82FB82C7
:100F7000C701B6019F77DF91CF91FF90EF90DF908F
:100F8000CF90BF90AF909F908F9008958F929F9237
:100F9000AF92BF92CF92DF92EF92FF9260910001E9
:100FA0007091010180910201909103016115710519
:100FB0008105910521F464E279ED8BE597E02DE15F
:100FC00033EF41E050E00E94530849015A019B0170
:100FD000AC01A7EAB1E40E9472086B017C01ACEE9F
:100FE000B4EFA50194010E948008C60ED71EE81E2A
:100FF000F91EF7FE06C081E0C81AD108E10880E8B2
:10100000F80AC0920001D0920101E0920201F09230
:101010000301C701B6019F77FF90EF90DF90CF905B
:10102000BF90AF909F908F90089560930001709350
:10103000010180930201909303010895BB274A3078
:1010400031F4992322F4BDE2909581959F4F0C9441
:101050002A08BB27FB015527AA27880F991FAA1F1B
:10106000A41710F0A41B83955051B9F7A05DAA33C3
:1010700008F0A95DA193009779F7B111B19311928E
:10108000CB010C944308DC01FC01672F719177239D
:10109000E1F7329704C07C916D9370836291AE1733
:1010A000BF07C8F30895052E97FB1EF400940E9415
:1010B0006A0857FD07D00E94BC0807FC03D04EF415
:1010C0000C946A0850954095309521953F4F4F4FAD
:1010D0005F4F089590958095709561957F4F8F4FE4
:1010E0009F4F08950E94DE08A59F900DB49F900D1C
:1010F000A49F800D911D11240895B7FF0C947208D0
:101100000E947208821B930B08952F923F924F9278
:101110005F926F927F928F929F92AF92BF92CF9287
:10112000DF92EF92FF920F931F93CF93DF93CDB790
:10113000DEB7CA1BDB0B0FB6F894DEBF0FBECDBF08
:1011400009942A88398848885F846E847D848C84D9
:101150009B84AA84B984C884DF80EE80FD800C81E2
:101160001B81AA81B981CE0FD11D0FB6F894DEBFC5
:101170000FBECDBFED010895A1E21A2EAA1BBB1B25
:10118000FD010DC0AA1FBB1FEE1FFF1FA217B30753
:10119000E407F50720F0A21BB30BE40BF50B661F69
:1011A000771F881F991F1A9469F76095709580952D
:1011B00090959B01AC01BD01CF010895A29FB001A4
:1011C000B39FC001A39F700D811D1124911DB29F7B
:1011D000700D811D1124911D0895EE0FFF1F0590C4
:1011E000F491E02D09940F931F93CF93DF938230F6
:1011F000910510F482E090E0E0913903F0913A0318
:1012000030E020E0B0E0A0E0309799F421153105FE
:1012100009F44AC0281B390B24303105D8F58A81DE
:101220009B816115710589F1FB0193838283FE0126
:1012300011C0408151810281138148175907E0F0A4
:101240004817590799F4109761F012960C9312976A
:1012500013961C933296CF01DF91CF911F910F917E
:1012600008950093390310933A03F4CF2115310503
:1012700051F04217530738F0A901DB019A01BD0173
:10128000DF01F801C1CFEF01F9CF90933A038093CA
:101290003903CDCFFE01E20FF31F819391932250CA
:1012A000310939832883D7CF209137033091380310
:1012B000232B41F42091060130910701309338032C
:1012C0002093370320910401309105012115310548
:1012D00041F42DB73EB74091080150910901241BFC
:1012E000350BE0913703F0913803E217F307A0F4D0
:1012F0002E1B3F0B2817390778F0AC014E5F5F4F6C
:101300002417350748F04E0F5F1F50933803409362
:101310003703819391939FCFF0E0E0E09CCFCF9390
:10132000DF930097E9F0FC01329713821282A091BB
:101330003903B0913A03ED0130E020E01097A1F4B9
:1013400020813181820F931F209137033091380320
:101350002817390709F061C0F0933803E093370389
:10136000DF91CF910895EA01CE17DF07E8F54A81B2
:101370005B819E0141155105B1F7E901FB83EA83C9
:1013800049915991C40FD51FEC17FD0761F4808175
:1013900091810296840F951FE90199838883828148
:1013A00093819B838A83F0E0E0E012968D919C917B
:1013B00013970097B9F52D913C911197CD010296A5
:1013C000820F931F20913703309138032817390774
:1013D00039F6309751F510923A0310923903B093D1
:1013E0003803A0933703BCCFD383C283408151819C
:1013F000840F951FC817D90761F44E5F5F4F88812E
:101400009981480F591F518340838A819B8193831F
:1014100082832115310509F0B0CFF0933A03E093B0
:1014200039039ECFFD01DC01C0CF13821282D7CFDA
:10143000B0E0A0E0EEE1FAE00C9487088C010097A0
:1014400051F4CB010E94F3088C01C801CDB7DEB77F
:10145000E0E10C94A308FC01E60FF71F9C01225069
:101460003109E217F30708F49DC0D901CD91DC9151
:101470001197C617D70798F0C530D10530F3CE01C4
:1014800004978617970708F3C61BD70B2297C193BB
:10149000D1936D937C93CF010E948F09D6CF5B01CE
:1014A000AC1ABD0A4C018C0E9D1EA0913903B0915F
:1014B0003A03512C412CF12CE12C109731F58091FD
:1014C0003703909138038815990509F05CC04616DA
:1014D000570608F058C080910401909105010097CB
:1014E00041F48DB79EB74091080150910901841BCA
:1014F000950BE817F90708F055C0F0933803E0930F
:101500003703F90171836083A0CF8D919C9111976E
:1015100012966C90129713967C901397A815B905A4
:1015200059F56C0142E0C40ED11CCA14DB0420F151
:10153000AC014A195B09DA011296159780F06282B4
:10154000738251834083D9016D937C93E114F1043C
:1015500071F0D7011396FC93EE93129776CF2296F3
:101560008C0F9D1FF90191838083F301EFCFF093DE
:101570003A03E093390369CF4816590608F42C0161
:101580007D01D3019ACFCB010E94F3087C01009723
:1015900049F0AE01B8010E94D50AC8010E948F0926
:1015A000870153CF10E000E050CFFB01DC0102C007
:1015B00001900D9241505040D8F70895FB01DC0195
:0E15C00001900D920020E1F70895F894FFCFFE
:1015CE000100000000003B0380000100010001004B
:1015DE0001000000010001000000010001000000F8
:1015EE0001000100010001000000010000000100E7
:1015FE0001000000000001000000000001000000DA
:10160E0001000100010001000100010000000000C6
:10161E0001000100010001000100000000000100B6
:10162E0001000100010001000100000000000100A6
:10163E000100010001000000000001000100010096
:10164E000100010000000100010000000100010086
:10165E000100010000000000010000000000010078
:10166E000100010001000100000000000100010066
:10167E000100000000000100010001000100010056
:10168E000100010001000000000001000100010046
:10169E000100000001000100010001000100010035
:1016AE000100000000000100000000000100000029
:1016BE000000010000000000010001000100010017
:1016CE000100000001000100010001000100000006
:1016DE0001000100010001000100010001000100F4
:1016EE0000000100010001000100000000000100E7
:1016FE0001000100010001010100000000000001D5
:10170E0001010001000000000101000001010000C4
:10171E0000010000010101000000010100010100B3
:10172E0000000000010101010000000000000101A5
:06173E00010100000000A3
:00000001FF
